:020000040800F2
:100000000000022085240008891A00088B1A0008C5
:100010008D1A00088F1A0008911A000800000000CD
:10002000000000000000000000000000931A00081B
:10003000951A000800000000971A0008991A000895
:10004000D5240008D5240008D5240008D5240008AC
:10005000D5240008D5240008D5240008D52400089C
:10006000D5240008D5240008D5240008D52400088C
:10007000D5240008D5240008D5240008D52400087C
:10008000D5240008D5240008D5240008D52400086C
:10009000D5240008D5240008D5240008D52400085C
:1000A000D5240008D5240008D5240008D52400084C
:1000B000D5240008D5240008D5240008D52400083C
:1000C000D5240008D5240008D5240008D52400082C
:1000D000D5240008A11A0008D5240008D52400085A
:1000E000D5240008D5240008D5240008D52400080C
:1000F000D5240008D5240008D5240008D5240008FC
:10010000D5240008D5240008D5240008D5240008EB
:10011000D5240008D5240008B11A0008D524000809
:10012000D5240008D5240008D5240008D5240008CB
:10013000D5240008D5240008D5240008D5240008BB
:10014000D5240008D5240008D5240008D5240008AB
:10015000D5240008D5240008D5240008D52400089B
:10016000D5240008D5240008D5240008D52400088B
:10017000D5240008D5240008D5240008000000007C
:08018000D5240008D524000875
:1001C00010B5054C237833B9044B13B10448AFF391
:1001D00000800123237010BDB8090020000000003A
:1001E00010A3000808B5034B1BB103490348AFF344
:1001F000008008BD00000000BC09002010A300081A
:1002000081F0004102E000BF83F0004330B54FEAC7
:1002100041044FEA430594EA050F08BF90EA020F34
:100220001FBF54EA000C55EA020C7FEA645C7FEAC7
:10023000655C00F0E2804FEA5454D4EB5555B8BFEA
:100240006D420CDD2C4480EA020281EA030382EA5B
:10025000000083EA010180EA020281EA0303362DED
:1002600088BF30BD11F0004F4FEA01314FF4801CC0
:100270004CEA113102D0404261EB410113F0004FD2
:100280004FEA03334CEA133302D0524263EB430389
:1002900094EA050F00F0A780A4F10104D5F1200E27
:1002A0000DDB02FA0EFC22FA05F2801841F1000182
:1002B00003FA0EF2801843FA05F359410EE0A5F156
:1002C00020050EF1200E012A03FA0EFC28BF4CF087
:1002D000020C43FA05F3C01851EBE37101F000453D
:1002E00007D54FF0000EDCF1000C7EEB00006EEB4A
:1002F0000101B1F5801F1BD3B1F5001F0CD34908D4
:100300005FEA30004FEA3C0C04F101044FEA44522A
:1003100012F5800F80F09A80BCF1004F08BF5FEAB1
:10032000500C50F1000041EB045141EA050130BD91
:100330005FEA4C0C404141EB0101013C28BFB1F5A3
:10034000801FE9D291F0000F04BF01460020B1FAEE
:1003500081F308BF2033A3F10B03B3F120020CDAC1
:100360000C3208DD02F1140CC2F10C0201FA0CF09F
:1003700021FA02F10CE002F11402D8BFC2F1200C04
:1003800001FA02F120FA0CFCDCBF41EA0C019040BA
:10039000E41AA2BF01EB0451294330BD6FEA040403
:1003A0001F3C1CDA0C340EDC04F11404C4F12002EE
:1003B00020FA04F001FA02F340EA030021FA04F300
:1003C00045EA030130BDC4F10C04C4F1200220FA57
:1003D00002F001FA04F340EA0300294630BD21FA95
:1003E00004F0294630BD94F0000F83F4801306BF5B
:1003F00081F480110134013D4EE77FEA645C18BF4F
:100400007FEA655C29D094EA050F08BF90EA020FE5
:1004100005D054EA000C04BF1946104630BD91EADD
:10042000030F1EBF0021002030BD5FEA545C05D1E0
:100430004000494128BF41F0004130BD14F580041F
:100440003CBF01F5801130BD01F0004545F0FE4193
:1004500041F470014FF0000030BD7FEA645C1ABFC8
:10046000194610467FEA655C1CBF0B46024650EAFF
:10047000013406BF52EA033591EA030F41F400212B
:1004800030BD00BF90F0000F04BF0021704730B5B1
:100490004FF4806404F132044FF000054FF0000186
:1004A00050E700BF90F0000F04BF0021704730B547
:1004B0004FF4806404F1320410F0004548BF40421C
:1004C0004FF000013EE700BF42004FEAE2014FEA71
:1004D00031014FEA02701FBF12F07F4393F07F4F4C
:1004E00081F06051704732F07F4208BF704793F04F
:1004F0007F4F04BF41F40021704730B54FF4607462
:1005000001F0004521F000411CE700BF50EA010264
:1005100008BF704730B54FF000050AE050EA01020D
:1005200008BF704730B511F0004502D5404261EB7D
:1005300041014FF4806404F132045FEA915C3FF4BE
:10054000D8AE4FF003025FEADC0C18BF03325FEA5B
:10055000DC0C18BF033202EBDC02C2F1200300FA0C
:1005600003FC20FA02F001FA03FE40EA0E0021FA31
:1005700002F11444BDE600BF4FF0FF3C06E000BFAF
:100580004FF0010C02E000BF4FF0010C4DF804CD1C
:100590004FEA410C7FEA6C5C4FEA430C18BF7FEADC
:1005A0006C5C1BD001B050EA410C0CBF52EA430C0A
:1005B00091EA030F02BF90EA020F0020704710F18A
:1005C000000F91EA030F58BF994208BF90422CBF19
:1005D000D8176FEAE37040F0010070474FEA410C12
:1005E0007FEA6C5C02D150EA013C07D14FEA430C30
:1005F0007FEA6C5CD6D152EA033CD3D05DF8040BA1
:10060000704700BF8446104662468C4619466346D2
:1006100000E000BF01B5FFF7B7FF002848BF10F1A9
:10062000000F01BD4DF808EDFFF7F4FF0CBF0120EE
:1006300000205DF808FB00BF4DF808EDFFF7EAFF6A
:1006400034BF012000205DF808FB00BF4DF808ED25
:10065000FFF7E0FF94BF012000205DF808FB00BF1A
:100660004DF808EDFFF7CEFF94BF012000205DF8A4
:1006700008FB00BF4DF808EDFFF7C4FF34BF0120B1
:1006800000205DF808FB00BF4A0011D212F50012ED
:1006900011D20DD56FF47873B3EB62520ED44FEADA
:1006A000C12343F0004343EA505323FA02F070475A
:1006B0004FF00000704750EA013002D14FF0FF3098
:1006C00070474FF00000704753B94AB9002908BF7E
:1006D00000281CBF4FF0FF314FF0FF3000F074B91D
:1006E000ADF1080C6DE904CE00F006F8DDF804E089
:1006F000DDE9022304B070472DE9F047089E0D465E
:1007000004468846002B4DD18A42944668D9B2FAF5
:1007100082F252B101FA02F3C2F1200120FA01F192
:100720000CFA02FC41EA030894404FEA1C45210CF4
:10073000B8FBF5FE1FFA8CF705FB1E8341EA034365
:100740000EFB07F199420BD91CEB03030EF1FF30AE
:1007500080F01E81994240F21B81AEF1020E63448B
:100760005B1AA4B2B3FBF5F005FB103344EA034473
:1007700000FB07F7A7420AD91CEB040400F1FF3382
:1007800080F00881A74240F2058164440238E41BEE
:1007900040EA0E4000211EB1D4400023C6E90043C8
:1007A000BDE8F0878B4208D9002E00F0EE800021D2
:1007B000C6E900050846BDE8F087B3FA83F10029D1
:1007C0004AD1AB4202D3824200F2F980841A65EB2F
:1007D000030301209846002EE2D0C6E90048DFE777
:1007E00002B9FFDEB2FA82F2002A40F09180A1EB5A
:1007F0000C054FEA1C471FFA8CFE0121B5FBF7F3ED
:1008000007FB1350250C45EA00450EFB03F0A842F8
:1008100008D91CEB050503F1FF3802D2A84200F20B
:10082000CB8043462D1AA4B2B5FBF7F007FB105559
:1008300044EA05440EFB00FEA64508D91CEB04045F
:1008400000F1FF3502D2A64500F2BB802846A4EB9A
:100850000E0440EA03409EE7C1F120078B4022FAD4
:1008600007FC4CEA030C20FA07F405FA01F31C43D9
:10087000FD404FEA1C4900FA01F3B5FBF9F8200CE2
:100880001FFA8CFE09FB185540EA054508FB0EF0DF
:10089000A84202FA01F20BD91CEB050508F1FF3A58
:1008A00080F08880A84240F28580A8F10208654463
:1008B0002D1AA4B2B5FBF9F009FB105544EA054521
:1008C00000FB0EFEAE4508D91CEB050500F1FF3418
:1008D0006CD2AE456AD90238654440EA0840A0FBB4
:1008E0000294A5EB0E05A542C846A64656D353D0A2
:1008F0005EB1B3EB080265EB0E0505FA07F722FAC5
:1009000001F3CD401F43C6E900750021BDE8F08723
:10091000C2F1200320FA03F10CFA02FC25FA03F3DA
:1009200095400D434FEA1C471FFA8CFEB3FBF7F1CD
:1009300007FB11302B0C43EA004301FB0EF09842F9
:1009400004FA02F408D91CEB030301F1FF382FD29B
:1009500098422DD9023963441B1AADB2B3FBF7F0AC
:1009600007FB103345EA034500FB0EF3AB4208D901
:100970001CEB050500F1FF3816D2AB4214D9023842
:100980006544ED1A40EA014138E73146304607E751
:100990008646E5E61846FAE64B45A9D2B9EB0208C9
:1009A00064EB0C0E0138A3E74046EAE7204694E7E3
:1009B0004146D1E7D0467BE7023B654432E7084633
:1009C00009E76444023842E7704700BF00000000B6
:1009D0000000000000000000000000000000000017
:1009E0000000000000000000000000000000000007
:1009F00000000000000000000000000000000000F7
:100A000090F800F06DE9024520F007016FF0000C4E
:100A100010F0070491F820F040F049804FF00004F6
:100A20006FF00700D1E9002391F840F000F10800D1
:100A300082FA4CF2A4FA8CF283FA4CF3A2FA8CF309
:100A40004BBBD1E9022382FA4CF200F10800A4FA70
:100A50008CF283FA4CF3A2FA8CF3E3B9D1E90423C4
:100A600082FA4CF200F10800A4FA8CF283FA4CF3FB
:100A7000A2FA8CF37BB9D1E9062301F1200182FAB5
:100A80004CF200F10800A4FA8CF283FA4CF3A2FABB
:100A90008CF3002BC6D0002A04BF04301A4612BAC9
:100AA000B2FA82F2FDE8024500EBD2007047D1E9CC
:100AB000002304F00305C4F100004FEAC50514F05B
:100AC000040F91F840F00CFA05F562EA05021CBF2C
:100AD00063EA050362464FF00004A9E70000000046
:100AE00001F0FF01102A2BDB10F0070F08D010F8DF
:100AF000013B013A8B422DD010F0070F42B3F6D1E3
:100B0000F0B441EA012141EA014122F007047FF0FB
:100B100000070023F0E80256083C85EA010586EA52
:100B2000010685FA47F5A3FA87F586FA47F6A5FA8E
:100B300087F68EB9EED1F0BC01F0FF0102F007029A
:100B400032B110F8013B013A83EA010313B1F8D145
:100B50000020704701387047002D06BF3546033826
:100B6000073815F0010F07D1013015F4807F02BF5F
:100B7000013015F4C03F0130F0BC0138704700BFB0
:100B8000844641EA000313F003036DD1403A41D398
:100B900051F8043B40F8043B51F8043B40F8043B57
:100BA00051F8043B40F8043B51F8043B40F8043B47
:100BB00051F8043B40F8043B51F8043B40F8043B37
:100BC00051F8043B40F8043B51F8043B40F8043B27
:100BD00051F8043B40F8043B51F8043B40F8043B17
:100BE00051F8043B40F8043B51F8043B40F8043B07
:100BF00051F8043B40F8043B51F8043B40F8043BF7
:100C000051F8043B40F8043B51F8043B40F8043BE6
:100C1000403ABDD2303211D351F8043B40F8043B86
:100C200051F8043B40F8043B51F8043B40F8043BC6
:100C300051F8043B40F8043B103AEDD20C3205D396
:100C400051F8043B40F8043B043AF9D2043208D08E
:100C5000D2071CBF11F8013B00F8013B01D30B8800
:100C600003806046704700BF082A13D38B078DD0DE
:100C700010F003038AD0C3F10403D21ADB071CBFB0
:100C800011F8013B00F8013B80D331F8023B20F81A
:100C9000023B7BE7043AD9D3013A11F8013B00F853
:100CA000013BF9D20B7803704B7843708B788370DB
:100CB0006046704770B54FF0FF0C4CF4E06C1CEAD6
:100CC00011541DBF1CEA135594EA0C0F95EA0C0F42
:100CD00000F0DEF82C4481EA030621EA4C5123EAB5
:100CE0004C5350EA013518BF52EA033541F48011E4
:100CF00043F4801338D0A0FB02CE4FF00005E1FB97
:100D000002E506F00042E0FB03E54FF00006E1FBE0
:100D100003569CF0000F18BF4EF0010EA4F1FF0423
:100D2000B6F5007F64F5407404D25FEA4E0E6D4163
:100D300046EB060642EAC62141EA55514FEAC52074
:100D400040EA5E504FEACE2EB4F1FD0C88BFBCF5F0
:100D5000E06F1ED8BEF1004F08BF5FEA500E50F1A1
:100D6000000041EB045170BD06F0004646EA010167
:100D700040EA020081EA0301B4EB5C04C2BFD4EB99
:100D80000C0541EA045170BD41F480114FF0000E92
:100D9000013C00F3AB8014F1360FDEBF002001F000
:100DA000004170BDC4F10004203C35DA0C341BDC7A
:100DB00004F11404C4F1200500FA05F320FA04F04C
:100DC00001FA05F240EA020001F0004221F0004180
:100DD00010EBD37021FA04F642EB06015EEA430EF3
:100DE00008BF20EAD37070BDC4F10C04C4F1200523
:100DF00000FA04F320FA05F001FA04F240EA0200D6
:100E000001F0004110EBD37041F100015EEA430EA6
:100E100008BF20EAD37070BDC4F1200500FA05F2C6
:100E20004EEA020E20FA04F301FA05F243EA020345
:100E300021FA04F001F0004121FA04F220EA020054
:100E400000EBD3705EEA430E08BF20EAD37070BD9A
:100E500094F0000F0FD101F00046400041EB01017A
:100E600011F4801F08BF013CF7D041EA060195F05C
:100E7000000F18BF704703F00046520043EB030316
:100E800013F4801F08BF013DF7D043EA0603704703
:100E900094EA0C0F0CEA135518BF95EA0C0F0CD00E
:100EA00050EA410618BF52EA4306D1D181EA030154
:100EB00001F000414FF0000070BD50EA410606BF4E
:100EC0001046194652EA430619D094EA0C0F02D193
:100ED00050EA013613D195EA0C0F05D152EA0336D8
:100EE0001CBF104619460AD181EA030101F00041F6
:100EF00041F0FE4141F470014FF0000070BD41F03F
:100F0000FE4141F4780170BD70B54FF0FF0C4CF418
:100F1000E06C1CEA11541DBF1CEA135594EA0C0F37
:100F200095EA0C0F00F0A7F8A4EB050481EA030E84
:100F300052EA03354FEA013100F088804FEA03336B
:100F40004FF0805545EA131343EA12634FEA022239
:100F500045EA111545EA10654FEA00260EF00041FA
:100F60009D4208BF964244F1FD0404F5407402D24C
:100F70005B084FEA3202B61A65EB03055B084FEADD
:100F800032024FF480104FF4002CB6EB020E75EBDA
:100F9000030E22BFB61A754640EA0C005B084FEA02
:100FA0003202B6EB020E75EB030E22BFB61A75467F
:100FB00040EA5C005B084FEA3202B6EB020E75EBCA
:100FC000030E22BFB61A754640EA9C005B084FEA42
:100FD0003202B6EB020E75EB030E22BFB61A75464F
:100FE00040EADC0055EA060E18D04FEA051545EA3E
:100FF00016754FEA06164FEAC30343EA52734FEAE7
:10100000C2025FEA1C1CC0D111F4801F0BD141EA5F
:1010100000014FF000004FF0004CB6E711F4801FC4
:1010200004BF01430020B4F1FD0C88BFBCF5E06FA4
:101030003FF6AFAEB5EB030C04BFB6EB020C5FEAB4
:10104000500C50F1000041EB045170BD0EF0004E09
:101050004EEA113114EB5C04C2BFD4EB0C0541EA3B
:10106000045170BD41F480114FF0000E013C90E638
:1010700045EA060E8DE60CEA135594EA0C0F08BFFC
:1010800095EA0C0F3FF43BAF94EA0C0F0AD150EAFB
:1010900001347FF434AF95EA0C0F7FF425AF10468E
:1010A00019462CE795EA0C0F06D152EA03353FF4B6
:1010B000FDAE1046194622E750EA410618BF52EA33
:1010C00043067FF4C5AE50EA41047FF40DAF52EA07
:1010D00043057FF4EBAE12E74FEA410C7FEA6C5C0C
:1010E00002D150EA013C0AD14FEA430C7FEA6C5C22
:1010F00002D152EA033C02D14FF0000070474FF09A
:10110000010070474FEA410212F5001215D211D5C5
:101110006FF47873B3EB625212D94FEAC12343F0F4
:10112000004343EA505311F0004F23FA02F018BF76
:10113000404270474FF00000704750EA013005D13F
:1011400011F0004008BF6FF0004070474FF0000002
:10115000704700BF2DE9F0438FB0002409940A9432
:101160000B940C940D940194444B1A6B42F02002A2
:101170001A631A6B02F020020192019A02941A6B10
:1011800042F080021A631A6B02F080020292029A05
:1011900003941A6B42F001021A631A6B02F0010207
:1011A0000392039A04941A6B42F010021A631A6BAA
:1011B00002F010020492049A05941A6B42F00202A3
:1011C0001A631A6B02F002020592059A06941A6BD2
:1011D00042F008021A631A6B02F008020692069A9D
:1011E00007941A6B42F004021A631A6B02F00402AD
:1011F0000792079A08941A6B42F040021A631B6B1D
:1012000003F040030893089BDFF87490224641F2F4
:101210001F01484601F082FBDFF8688022464FF448
:101220000041404601F07AFB174F22464FF480619F
:10123000384601F073FB41F21F03099301260A9619
:101240000B9403250C9509A9484601F075FA4FF453
:10125000004309930A960B940C9509A9404601F0A6
:101260006BFA4FF4806309930A960B940C9509A9C5
:10127000384601F061FA0FB0BDE8F0830038024053
:101280000014024000040240000C024008B50B4864
:101290000B4B03600B4B436000238360C3604FF430
:1012A0008042026143618361C361036201F03CFBE0
:1012B00000B908BD00F090FAFBE700BFD409002098
:1012C00000540040A086010030B589B0002303938C
:1012D00004930593069307930268144B9A4201D036
:1012E00009B030BD00250195114C236B43F002037A
:1012F0002363236B03F002030193019BC023039339
:1013000012230493032306930423079303A9094894
:1013100001F012FA0295236C43F400132364236C4A
:1013200003F400130293029BDAE700BF005400406D
:1013300000380240000402402DE9F00FDFF8A0C0A1
:101340000026284FCCE9026723A5D5E90045CCE962
:10135000044500202449CCE906010022234BCCE9B6
:1013600008234FF00008DFF88890CCE90A894FF095
:10137000000A4FF0000BCCE90CABDFF878C0CCE9E9
:101380000267CCE90445CCE90601CCE90823CCE9A5
:101390000A89CCE90CABDFF860C0CCE90267CCE984
:1013A0000445CCE90601CCE90823CCE90A89CCE95B
:1013B0000CABDFF848C0CCE90267CCE90445CCE9C6
:1013C0000601CCE90823CCE90A89CCE90CABBDE8DD
:1013D000F00F7047AFF300800000000000408FC0A6
:1013E000280A00200000144000408F4000002E40DA
:1013F00000001040800A0020D80A0020300B002096
:101400002DE9F04782B08246D0E90E89C0E9108903
:10141000D0E90023D0E90201FEF7F6FE04460D46AE
:10142000CAE90E45DAE91223FEF7F0FE06460F463A
:10143000CAE91267DAE9082320462946FFF73AFC91
:10144000CDE90001DAE90A2330463946FFF732FCDC
:1014500002460B46DDE90001FEF7D8FECDE90001AA
:10146000DAE90C6742464B4620462946FEF7CCFE99
:1014700002460B4630463946FFF71CFC02460B4637
:10148000DDE90001FEF7C2FE04460D46DAE9066713
:1014900002460B4630463946FFF7CEF808B92646D5
:1014A0002F46DAE9044532463B4620462946FFF7F7
:1014B000E1F808B934463D46CAE9144502B0BDE832
:1014C000F087000038B5B24B1D68686AB14C00B2B5
:1014D000FEF7E8FFC4E9000100236B622046FFF736
:1014E0008FFFD4E914450022002320462946FFF748
:1014F000C1F8C0B90022002320462946FFF79CF816
:10150000002853D100224FF40041A34801F006FA0D
:1015100000224FF48051A14801F000FAA04B1B6853
:1015200000225A6313E000224FF400419A4801F070
:10153000F5F901224FF48051984801F0EFF9984BEA
:101540001C68944BD3E91401FFF79EF86063954B38
:101550001D68686A944C00B2FEF7A4FFC4E900015C
:1015600000236B622046FFF74BFFD4E914450022AD
:10157000002320462946FFF77DF870BB0022002398
:1015800020462946FFF758F8002868D1834C0022EE
:101590000121204601F0C2F900220221204601F07B
:1015A000BDF97F4B1B6800229A6329E001224FF4AA
:1015B0000041794801F0B2F900224FF48051774898
:1015C00001F0ACF9734B5A6D75490C68186D02F156
:1015D0000041FFF759F86063B9E7704C0022012120
:1015E000204601F09BF901220221204601F096F9E4
:1015F0006B4B1C686C4BD3E91401FFF745F8A063F3
:101600006A4B1D68686A6A4C00B2FEF74BFFC4E97A
:10161000000100236B622046FFF7F2FED4E9144577
:101620000022002320462946FFF724F868BB002249
:10163000002320462946FEF7FFFF002867D1574CBC
:1016400000220421204601F069F9002208212046E9
:1016500001F064F9524B1B680022DA6328E04F4C1A
:1016600001221146204601F059F9002202212046AC
:1016700001F054F94C4B5A6D49490C68186D02F150
:101680000041FFF701F8A063BAE7444C00220421AF
:10169000204601F043F901220821204601F03EF9DD
:1016A0003F4B1C68424BD3E91401FEF7EDFFE063AA
:1016B000404B1D68686A404C00B2FEF7F3FEC4E977
:1016C000000100236B622046FFF79AFED4E914451F
:1016D0000022002320462946FEF7CCFF68BB0022EB
:1016E000002320462946FEF7A7FF002839D1002213
:1016F00010212A4801F012F900224FF480612F488E
:1017000001F00CF9264B1B6800221A6428E0234CD8
:1017100001220421204601F001F90022082120467F
:1017200001F0FCF8224B5A6D1D490C68186D02F14E
:101730000041FEF7A9FFE063BAE700221021174835
:1017400001F0ECF801224FF480611C4801F0E6F84A
:10175000134B1C68184BD3E91401FEF795FF206466
:1017600038BD012210210D4801F0D8F800224FF4B5
:101770008061124801F0D2F80F4B5A6D08490C688D
:10178000186D02F10041FEF77FFF2064E8E700BF1B
:10179000E40B0020280A002000040240001402404C
:1017A0004C0D00202C0C0020800A0020740C00201E
:1017B000D80A0020BC0C0020300B0020000C024096
:1017C00008B50268034B9A4200D008BDFFF77AFEC5
:1017D000FBE700BF0010004072B6FEE700B595B011
:1017E0003022002108A802F035FE00230393049361
:1017F00005930693079301931E4A116C41F08051A3
:101800001164126C02F080520192019A02931A4AFA
:10181000116841F480411160126802F48042029222
:10182000029A0222089201210B9110210C910E9232
:101830000F9308231093A823119312920423139358
:1018400008A801F04FF988B90F23039302230493EA
:10185000002305934FF4A05306930793052103A893
:1018600001F08EFB20B915B05DF804FBFFF7B4FF63
:10187000FFF7B2FF003802400070004000B595B09D
:1018800000F050FEFFF7AAFFFFF764FC00F078F9C4
:1018900000F0AAF900F0DAF900F00AFA00F03AFADA
:1018A00000F048FC00F082FBFFF7F0FC00F064F869
:1018B00000F00CFC00F024FC00F056FC00F06EFC84
:1018C00000F086FCFFF738FD224801F051FD0421AD
:1018D000214802F02DF90421204802F029F90421C1
:1018E0001F4802F025F904211E4802F021F91E4C80
:1018F0000021204602F09AF80421204602F096F8D2
:101900000821204602F092F80C21204602F08EF8C1
:10191000002104913C2205A802F09CFD134BD3E961
:101920001401CDE90201D3E90023CDE90023104AD7
:10193000402104A802F0E0FD04A8FFF761F8642349
:1019400082B204A90B4802F024FB322000F016FEFC
:10195000DEE700BF040D0020E40B00202C0C00206B
:10196000740C0020BC0C00204C0D0020800A0020CC
:1019700028A30008940D002008B50D480D4B036006
:101980004FF48273436000238360C360036143614B
:101990004FF400728261C3610362436283620A236F
:1019A000C36201F0C3FB00B908BDFFF715FFFBE7F9
:1019B000880B002000300140F0B589B0002303936C
:1019C000049305930693079302681E4B9A4201D035
:1019D00009B0F0BD0024009403F584335A6C42F43E
:1019E00080525A645A6C02F480520092009A019418
:1019F0001A6B42F001021A631A6B02F001020192A3
:101A0000019A02941A6B42F002021A631B6B03F0F4
:101A100002030293029B20230393022704970326C9
:101A200006960525079503A9074800F085FE302393
:101A30000393049705940696079503A9034800F0BD
:101A40007BFEC5E700300140000002400004024078
:101A500082B0002100910B4B5A6C42F480425A64D0
:101A60005A6C02F480420092009A01911A6C42F082
:101A700080521A641B6C03F080530193019B02B0E7
:101A8000704700BF00380240FEE7FEE7FEE7FEE7D2
:101A9000FEE770477047704708B500F05DFD08BD70
:101AA00008B5024802F06CFB08BD00BF940D002091
:101AB00008B5024801F0A5FC08BD00BF040D0020D8
:101AC0000120704708B502F09BFC162303604FF01D
:101AD000FF3008BD08B54FF0FF31FFF7F3FFFEE719
:101AE00070B50C461646002506E0AFF3008021468F
:101AF00001F8010B01350C46B542F6DB304670BDEE
:101B000070B50C461646002504E014F8010BAFF33F
:101B100000800135B542F8DB304670BD4FF0FF3034
:101B200070474FF400534B6000207047012070470E
:101B30000020704710B503460C4A0D490D48006857
:101B400040B10C4800680344521A934206D8094A2F
:101B5000136010BD0748084C0460F2E702F050FC27
:101B60000C2303604FF0FF30F3E700BF00000220BA
:101B700000040000E00B0020780F002070470000F8
:101B800000B58DB02422002103A802F063FC0023DD
:101B9000019302931248134A0260436083604FF638
:101BA000FF72C260036143618361032303930123D6
:101BB0000593099303A901F09DFD50B900230193FA
:101BC000029301A9064802F019F828B90DB05DF892
:101BD00004FBFFF701FEF1E7FFF7FEFDF6E700BFAC
:101BE000E40B00200000014000B58DB0242200214C
:101BF00003A802F02FFC00230193029312484FF038
:101C000080420260436083604FF6FF72C2600361EE
:101C100083610323039301230593099303A901F02F
:101C200069FD50B900230193029301A9064801F010
:101C3000E5FF28B90DB05DF804FBFFF7CDFDF1E736
:101C4000FFF7CAFDF6E700BF2C0C002000B58DB0F1
:101C50002422002103A802F0FDFB0023019302933C
:101C60001148124A0260436083604FF6FF72C260FF
:101C700003618361012303930593099303A901F091
:101C800039FD50B900230193029301A9064801F0E0
:101C9000B5FF28B90DB05DF804FBFFF79DFDF1E736
:101CA000FFF79AFDF6E700BF740C00200004004027
:101CB00000B58DB02422002103A802F0CBFB002345
:101CC000019302931148124A0260436083604FF609
:101CD000FF72C2600361836101230393059309933B
:101CE00003A901F007FD50B900230193029301A954
:101CF000064801F083FF28B90DB05DF804FBFFF73B
:101D00006BFDF1E7FFF768FDF6E700BFBC0C0020B4
:101D10000008004000B583B00023009301930F48F2
:101D20000F4A026053224260836044F61F62C26021
:101D3000836101F087FC50B9002300930193694649
:101D4000064801F05BFF28B903B05DF804FBFFF71C
:101D500043FDF1E7FFF740FDF6E700BF040D00206B
:101D60000010004070B58EB0002309930A930B93C6
:101D70000C930D930368544A93420AD0B3F1804FF9
:101D800029D0524A93425DD0514A93427AD00EB044
:101D900070BD002100914F4B5A6C42F001025A6411
:101DA0005A6C02F001020092009A01911A6B42F003
:101DB00010021A631B6B03F010030193019B4FF495
:101DC0002063099302230A9301230D9309A9424832
:101DD00000F0B2FCDBE70024029403F50E331A6C2A
:101DE00042F001021A641A6C02F001020292029A95
:101DF00003941A6B42F001021A631A6B02F001029B
:101E00000392039A04941A6B42F002021A631B6B4A
:101E100003F002030493049B4FF40043099302264A
:101E20000A9601250D9509A92C4800F085FC082388
:101E300009930A960B940C940D9509A9284800F073
:101E40007BFCA4E700210591224B1A6C42F00202B0
:101E50001A641A6C02F002020592059A06911A6B36
:101E600042F001021A631B6B03F001030693069B09
:101E7000C023099302230A930D9309A9174800F080
:101E80005BFC84E700210791124B1A6C42F00402BC
:101E90001A641A6C02F004020792079A08911A6BEE
:101EA00042F008021A631B6B03F008030893089BB7
:101EB0004FF44053099302230A930D9309A909484B
:101EC00000F03AFC63E700BF00000140000400405E
:101ED00000080040003802400010024000000240AC
:101EE00000040240000C024000B583B00368154AAC
:101EF000934205D0144A934216D003B05DF804FB18
:101F000000210091114B1A6C42F010021A641B6CF4
:101F100003F010030093009B0A46362000F054FBA8
:101F2000362000F089FBE8E700230193074B5A6C49
:101F300042F002025A645B6C03F002030193019BBE
:101F4000DBE700BF00100040000401400038024001
:101F500000B587B000230193029303930493059384
:101F6000026803F1804303F582339A4202D007B03E
:101F70005DF804FB002300930A4B1A6B42F0040245
:101F80001A631B6B03F004030093009B4FF4707300
:101F90000193022302930323059301A9024800F051
:101FA000CBFBE4E7003802400008024010B596B0D1
:101FB0000024129413941494159410941194099479
:101FC0000A940B940C940D940E940F9420222146A5
:101FD00001A802F03FFA3B483B4B036053234360A8
:101FE000846040F2E733C36004614461846101F0BE
:101FF00029FB00284BD14FF48053129312A931488A
:1020000001F086FC002845D12E4801F047FB00284E
:1020100043D100231093119310A92A4801F0EEFD3B
:1020200000283DD16023099300220A920B920C9262
:102030000D920E920F9209A9224801F0EFFB0028A1
:1020400031D1042209A91F4801F0E8FB70BB082226
:1020500009A91C4801F0E2FB58BB0C2209A9194848
:1020600001F0DCFB40BB0023019302930393049334
:1020700005934FF400520692089301A9114801F00C
:1020800003FEE0B90F48FFF763FF16B010BDFFF77E
:10209000A3FBB0E7FFF7A0FBB6E7FFF79DFBB8E7B0
:1020A000FFF79AFBBEE7FFF797FBCAE7FFF794FB42
:1020B000CDE7FFF791FBD0E7FFF78EFBD3E7FFF704
:1020C0008BFBDFE74C0D00200004014008B50A48F7
:1020D0000A4B03604FF4E133436000238360C36025
:1020E00003610C2242618361C36101F023FF00B9E7
:1020F00008BDFFF771FBFBE7600E0020004C0040BD
:1021000008B50A480A4B03604FF4E13343600023EB
:102110008360C36003610C2242618361C36101F08B
:1021200009FF00B908BDFFF757FBFBE7A40E00202D
:102130000050004008B50A480A4B03604FF4E133F1
:10214000436000238360C36003610C2242618361AA
:10215000C36101F0EFFE00B908BDFFF73DFBFBE7EF
:10216000940D00200010014008B50A480A4B036096
:102170004FF4E133436000238360C36003610C22AA
:1021800042618361C36101F0D5FE00B908BDFFF76C
:1021900023FBFBE7D80D00200044004008B50A48A7
:1021A0000A4B03604FF4E133436000238360C36054
:1021B00003610C2242618361C36101F0BBFE00B97F
:1021C00008BDFFF709FBFBE71C0E0020004800409C
:1021D00008B50A480A4B03604FF4E133436000231B
:1021E0008360C36003610C2242618361C36101F0BB
:1021F000A1FE00B908BDFFF7EFFAFBE7E80E0020EB
:1022000000140140F0B595B000230F931093119383
:102210001293139303688F4A934213D08E4A9342CA
:1022200048D08E4A93427DD08D4A934200F0A680DA
:102230008C4A934200F0C5808B4A934200F0E580BF
:1022400015B0F0BD00240194884B1A6C42F40022B2
:102250001A641A6C02F400220192019A02941A6B19
:1022600042F001021A631A6B02F001020292029A12
:1022700003941A6B42F004021A631B6B03F004030D
:102280000393039B01230F930227109703261296B3
:10229000082513950FA9764800F04EFA4FF4006315
:1022A0000F9310971194129613950FA9714800F08F
:1022B00043FAC5E7002404946C4B1A6C42F4801274
:1022C0001A641A6C02F480120492049A05941A6B30
:1022D00042F004021A631A6B02F004020592059A96
:1022E00006941A6B42F008021A631B6B03F0080392
:1022F0000693069B4FF480530F93022710970326F3
:102300001296082513950FA95A4800F015FA0423D0
:102310000F9310971194129613950FA9564800F039
:102320000BFA8DE700240794504B5A6C42F01002D0
:102330005A645A6C02F010020792079A08941A6BBA
:1023400042F001021A631B6B03F001030893089B20
:102350004FF4C0630F9302231093032312930723B8
:1023600013930FA9424800F0E7F9224621462520A1
:1023700000F02AF9252000F05FF961E700210991BA
:102380003A4B1A6C42F400321A641A6C02F40032AE
:102390000992099A0A911A6B42F001021A631B6BA7
:1023A00003F001030A930A9B0C230F93022310935B
:1023B00003231293072313930FA92D4800F0BCF9B0
:1023C0003EE700210B91294B1A6C42F480221A64DB
:1023D0001A6C02F480220B920B9A0C911A6B42F049
:1023E00002021A631B6B03F002030C930C9B4FF465
:1023F00040630F9302231093032312930723139335
:102400000FA91E4800F098F91AE700210D91174B0B
:102410005A6C42F020025A645A6C02F020020D926B
:102420000D9A0E911A6B42F040021A631B6B03F077
:1024300040030E930E9B4FF484430F93022310939B
:1024400003231293082313930FA90D4800F074F986
:10245000F6E600BF004C0040005000400010014074
:102460000044004000480040001401400038024091
:102470000000024000080240000C0240000402403C
:1024800000180240DFF834D00D480E490E4A0023F0
:1024900002E0D458C4500433C4188C42F9D30B4A18
:1024A0000B4C002301E013600432A242FBD3FFF780
:1024B00065FB01F0ABFFFFF7E1F970470000022078
:1024C00000000020B809002024A70008B809002057
:1024D000780F0020FEE7000010B504460E4B187878
:1024E0004FF47A73B3FBF0F30C4A1068B0FBF3F0CF
:1024F00000F0B0F868B90F2C01D901200AE00022E1
:1025000021464FF0FF3000F05FF8054B1C600020C3
:1025100000E0012010BD00BF0400002000000020EA
:102520000800002008B50B4B1A6842F400721A60CC
:102530001A6842F480621A601A6842F480721A6063
:10254000032000F02FF80F20FFF7C6FFFFF780FAF7
:10255000002008BD003C0240034A1168034B1B7871
:102560000B441360704700BF2C0F002004000020B4
:10257000014B1868704700BF2C0F002038B5044687
:10258000FFF7F6FF0546B4F1FF3F02D0044B1B787E
:102590001C44FFF7EDFF401BA042FAD338BD00BF3B
:1025A00004000020074AD36823F4E0631B041B0CDB
:1025B000000200F4E060034343F0BF6343F40033E0
:1025C000D360704700ED00E000B5194BDB68C3F342
:1025D0000223C3F1070CBCF1040F28BF4FF0040C19
:1025E00003F1040EBEF1060F18D9033B4FF0FF3E76
:1025F0000EFA0CFC21EA0C0199400EFA03F322EAD0
:102600000303194300280BDB0901C9B200F1604044
:1026100000F5614080F800135DF804FB0023E5E756
:1026200000F00F000901C9B2024B1954F4E700BFD2
:1026300000ED00E014ED00E0002807DB00F01F02D1
:10264000400901239340024A42F82030704700BFFE
:1026500000E100E00138B0F1807F0BD24FF0E023C1
:102660005861054AF02182F8231000209861072262
:102670001A6170470120704700ED00E070B5044614
:10268000866DFFF775FF94F83530DBB2022B06D06C
:1026900080236365002384F83430012070BD054633
:1026A0002268136823F0160313602268536923F02D
:1026B00080035361236CE3B12268136823F008039D
:1026C00013602268136823F00103136023681B68FA
:1026D00013F0010F11D0FFF74BFF431B052BF5D96A
:1026E00020236365032084F83500002384F8343008
:1026F000D4E7A36C002BDFD1E3E7E26D3F239340E7
:10270000B360012384F83530002084F83400C5E735
:1027100090F83530DBB2022B03D0802343650120D3
:102720007047052380F835300268136823F00103F1
:10273000136000207047000000230F2B00F2E4809C
:1027400070B582B060E085685E000324B44025EA7D
:102750000405CC68B4402C438460456825EA020532
:102760004C68C4F300129A402A4342605AE0DC08E5
:10277000083450F8246003F0070295000F22AA40A5
:1027800026EA020E0A69AA4042EA0E0240F8242014
:102790005CE0072200E0002202FA0EF22A43023433
:1027A0005A4D45F824205A4A14686FEA0C0224EA6C
:1027B0000C054E6816F4803F01D04CEA0405544CD9
:1027C0002560646802EA04054E6816F4003F01D0F3
:1027D0004CEA04054E4C6560A46802EA04054E68A4
:1027E00016F4801F01D04CEA0405494CA560E4684A
:1027F00022404D6815F4001F01D04CEA0402444CFD
:10280000E26001330F2B7DD801229A400C6804EA64
:10281000020C32EA0404F4D14C6804F00304013CD5
:10282000012C90D94A6802F00302032A09D0C46837
:102830005D000322AA4024EA02048A68AA402243D7
:10284000C2604A6802F00302022A90D004684FEA8C
:10285000430E032202FA0EF224EA02044A6802F04E
:10286000030202FA0EF2224302604A6812F4403F69
:10287000C7D000220192274A546C44F48044546427
:10288000526C02F480420192019A9C08A51C1F4AD6
:1028900052F8255003F003024FEA820E0F2202FA8B
:1028A0000EF225EA02051C4A90423FF474AF02F58D
:1028B000806290421AD002F58062904218D002F5F0
:1028C0008062904216D002F58062904214D002F5E8
:1028D0008062904212D002F58062904210D002F5E0
:1028E000806290423FF455AF082255E7012253E73A
:1028F000022251E703224FE704224DE705224BE76E
:10290000062249E702B070BD704700BF00380140A1
:10291000003C014000380240000002400AB18161E1
:102920007047090481617047002800F0CC8070B5C1
:10293000044690F83D30002B77D0242384F83D30B6
:102940002268136823F0010313602268136843F4BC
:10295000004313602268136823F40043136000F0FF
:10296000C5FB62685A4B9A4264D85A4B98428CBF56
:1029700000230123002B40F0A8805749A1FB003120
:102980008B0C25686A6822F03F0242EA91426A6035
:1029900021680A6A22F03F0266684D4DAE424FD868
:1029A000013313430B622168CA6922F44F4222F0BB
:1029B000FF026668464B9E424CD8431E7600B3FB2E
:1029C000F6F3013340F6FC70034278D0C3F30B03F7
:1029D0001343CB6121680B6823F0C003E269206ACE
:1029E000024313430B6021688B6823F4034323F0F5
:1029F000FF032269E068024313438B602168CB68C0
:102A000023F0FF036269A06902431343CB6022688D
:102A1000136843F00103136000202064202384F82E
:102A20003D30206384F83E0070BD80F83C30FEF7F6
:102A30004BFC82E7294B98428CBF0023012399E786
:102A40004FF4967505FB03F3254DA5FB03539B0936
:102A50000133A6E7A368BBB9451E06EB460CB5FBE0
:102A6000FCF50135C5F30B05B5FA85F56D0945BBD8
:102A7000C3B9013806EB4603B0FBF3F30133C3F3EC
:102A80000B0343F40043A3E7451E06EB860C0CEB57
:102A90008C0CB5FBFCF50135C5F30B05B5FA85F5D6
:102AA0006D09E4E7013806EB860303EB8303B0FB13
:102AB000F3F30133C3F30B0343F4404388E70423E8
:102AC00086E7012384E7012070470120ACE700BFBF
:102AD000A08601007F841E0083DE1B43FF083D00AB
:102AE000D34D6210002800F0E08170B582B004463A
:102AF000036813F0010F3BD09F4B9B6803F00C035E
:102B0000042B2CD09C4B9B6803F00C03082B21D08A
:102B10006368B3F5803F4FD0B3F5A02F52D0964BEA
:102B20001A6822F480321A601A6822F480221A602D
:102B30006368002B50D0FFF71BFD05468E4B1B68CA
:102B400013F4003F14D1FFF713FD401B6428F5D99F
:102B50000320B1E1884B5B6813F4800FD8D0864B1B
:102B60001B6813F4003F03D06368002B00F09F81C3
:102B7000236813F0020F54D07F4B9B6813F00C0FA7
:102B80003ED07D4B9B6803F00C03082B33D0E368E9
:102B9000002B68D0794B01221A60FFF7E9FC05464B
:102BA000754B1B6813F0020F54D1FFF7E1FC401B7B
:102BB0000228F5D903207FE16F4A136843F480337C
:102BC0001360B5E76C4B1A6842F480221A601A68E9
:102BD00042F480321A60ABE7FFF7CAFC0546664B49
:102BE0001B6813F4003FC3D0FFF7C2FC401B6428EE
:102BF000F5D9032060E1604B5B6813F4800FC6D108
:102C00005D4B1B6813F0020F03D0E368012B40F00B
:102C10005081594A136823F0F803216943EAC1033C
:102C20001360236813F0080F42D063696BB3534BF2
:102C30000122C3F8802EFFF79BFC05464E4B5B6FCD
:102C400013F0020F34D1FFF793FC401B0228F5D993
:102C5000032031E1484A136823F0F803216943EA6D
:102C6000C1031360DDE7454B00221A60FFF780FCCB
:102C70000546414B1B6813F0020FD2D0FFF778FCDA
:102C8000401B0228F5D9032016E13C4B0022C3F873
:102C9000802EFFF76DFC0546374B5B6F13F0020F7C
:102CA00006D0FFF765FC401B0228F5D9032003E19D
:102CB000236813F0040F77D02F4B1B6C13F0805F49
:102CC00033D1002301932C4B1A6C42F080521A64CA
:102CD0001B6C03F080530193019B0125284B1B685B
:102CE00013F4807F23D0A368012B34D0052B38D078
:102CF000214B1A6F22F001021A671A6F22F00402A8
:102D00001A67A368002B3DD0FFF732FC06461A4B2A
:102D10001B6F13F0020F46D1FFF72AFC801B41F214
:102D200088339842F3D90320C6E00025D6E7144A39
:102D3000136843F480731360FFF71AFC0646104BC8
:102D40001B6813F4807FCED1FFF712FC801B022892
:102D5000F5D90320B0E0084A136F43F0010313676D
:102D6000CFE7054B1A6F42F004021A671A6F42F060
:102D700001021A67C5E700BF003802400000474261
:102D800000700040FFF7F4FB0646524B1B6F13F038
:102D9000020F08D0FFF7ECFB801B41F2883398420A
:102DA000F3D9032088E0EDB9A369002B00F08380FC
:102DB000484A926802F00C02082A51D0022B17D020
:102DC000454B00221A66FFF7D3FB0446414B1B68B4
:102DD00013F0007F42D0FFF7CBFB001B0228F5D990
:102DE000032069E03B4A136C23F080531364DBE754
:102DF000394B00221A66FFF7BBFB0546354B1B68B3
:102E000013F0007F06D0FFF7B3FB401B0228F5D973
:102E1000032051E0E369226A1343626A43EA8213A2
:102E2000A26A5208013A43EA0243E26A43EA0263B1
:102E3000284A5360284B01221A66FFF799FB044683
:102E4000244B1B6813F0007F06D1FFF791FB001B9A
:102E50000228F5D903202FE000202DE000202BE0F0
:102E6000012B2BD01B4B5B6803F48001E26991427C
:102E700026D103F03F02216A8A4223D1616A47F6D4
:102E8000C0721A40B2EB811F1ED103F44031A26A16
:102E90005208013AB1EB024F18D103F07063E26AB5
:102EA000B3EB026F14D1002006E00120704701202F
:102EB00002E0012000E0002002B070BD0120FBE72D
:102EC0000120F9E70120F7E70120F5E70120F3E70A
:102ED0000120F1E7003802400000474208B5254BC9
:102EE0009B6803F00C03042B3FD0082B3FD1214BF0
:102EF0005A6802F03F025B6813F4800F12D01D4B3A
:102F00005968C1F388111C480023A1FB0001FDF79B
:102F1000DBFB184B5B68C3F3014301335B00B0FB81
:102F2000F3F025E0134B5968C1F3881C4FEA4C11AC
:102F3000B1EB0C006EEB0E0E4FEA8E1343EA90637A
:102F40008101091A63EB0E03DB0043EA5173C900E8
:102F500011EB0C0C43F10003990200234FEA8C2083
:102F600041EA9C51FDF7B0FBD3E7034800E003487A
:102F700008BD00BF0038024040787D010024F40005
:102F8000002800F09B8070B50D4604464F4B1B682F
:102F900003F007038B4208D2CBB24C4A137013687C
:102FA00003F007038B4240F08B80236813F0020F7D
:102FB00017D013F0040F04D0454A936843F4E0534C
:102FC0009360236813F0080F04D0414A936843F4D8
:102FD000604393603E4A936823F0F003A1680B437B
:102FE0009360236813F0010F32D06368012B21D066
:102FF0009A1E012A25D9364A126812F0020F61D0B2
:1030000033498A6822F0030213438B60FFF7B0FA5A
:1030100006462F4B9B6803F00C036268B3EB820FEC
:1030200016D0FFF7A5FA801B41F288339842F0D9F9
:10303000032042E0264A126812F4003FE0D101204A
:103040003BE0234A126812F0007FD9D1012034E01E
:103050001E4B1B6803F00703AB4207D9EAB21B4BB8
:103060001A701B6803F00703AB422DD1236813F0DD
:10307000040F06D0164A936823F4E053E1680B432B
:103080009360236813F0080F07D0114A936823F464
:103090006043216943EAC1039360FFF71FFF0C4BB4
:1030A0009B68C3F303130B4AD35CD8400A4B1860E8
:1030B0000A4B1868FFF710FA002070BD0120704716
:1030C0000120FAE70120F8E70120F6E7003C024082
:1030D0000038024040A30008000000200800002043
:1030E000014B1868704700BF0000002008B5FFF7CB
:1030F000F7FF044B9B68C3F38223034AD35CD84099
:1031000008BD00BF0038024050A3000808B5FFF713
:10311000E7FF044B9B68C3F34233034AD35CD840B8
:1031200008BD00BF0038024050A3000800285AD054
:1031300010B50446436A33B94368B3F5827F05D0BE
:103140000023C36102E00023036143610023A36203
:1031500094F85130002B40D0022384F8513022687B
:10316000136823F040031360636803F48273A2685A
:1031700002F404421343E26802F40062134322693A
:1031800002F002021343626902F001021343A269D2
:1031900002F400721343E26902F038021343226A18
:1031A00002F080021343A26A02F400522168134322
:1031B0000B60638B03F00403626A02F01002216863
:1031C00013434B602268D36923F40063D36100206A
:1031D0006065012384F8513010BD84F850302046DA
:1031E000FEF7EAFBB8E701207047000030B4036A3D
:1031F00023F001030362036A4268846924F07304C4
:103200000D682C4323F0020C8B6843EA0C03104D2D
:10321000A84203D005F58065A84205D123F0080334
:10322000CD682B4323F00403094DA84203D005F5D4
:103230008065A84205D122F440724D692A438D6908
:103240002A43426084614A684263036230BC70472B
:103250000000014030B4036A23F480730362036A00
:103260004268C46924F0730C0C6844EA0C0523F42A
:1032700000738C6843EA0423114CA04203D004F588
:103280008064A04206D123F40063CC6843EA04239F
:1032900023F480630A4CA04203D004F58064A0426A
:1032A00007D122F440524C6942EA04128C6942EA86
:1032B00004124260C5614A68C263036230BC704751
:1032C0000000014030B4036A23F480530362036AB0
:1032D0004468C26922F4E6420D6842EA052223F4FA
:1032E00000538D6843EA0533094DA84203D005F524
:1032F0008065A84204D124F480444D6944EA8514D1
:103300004460C2614A680264036230BC704700BF17
:103310000000014010B4036A046A24F0010404624E
:10332000846924F0F00C4CEA021223F00A030B43E8
:103330008261036210BC704710B4046A24F0100468
:1033400004628469036A24F4704C4CEA023223F06C
:10335000A00343EA01138261036210BC70478368D3
:1033600023F070030B4343F00703836070470000B2
:1033700090F83D30DBB2012B37D1022380F83D308D
:103380000268D36843F00103D3600368194A93428B
:1033900020D0B3F1804F1DD0A2F57C42934219D0CA
:1033A00002F58062934215D002F58062934211D0FB
:1033B00002F5784293420DD002F57052934209D043
:1033C000A2F59432934205D01A6842F001021A60C5
:1033D000002070479A6802F00702062A07D01A6890
:1033E00042F001021A60002070470120704700205F
:1033F000704700BF0000014070477047704770473A
:10340000704710B5044603681A6912F0020F11D014
:10341000DA6812F0020F0DD06FF002021A61012378
:10342000037703689B6913F0030F70D0FFF7E6FF83
:103430000023237723681A6912F0040F12D0DA6888
:1034400012F0040F0ED06FF004021A6102232377EA
:1034500023689B6913F4407F5FD02046FFF7CEFFBF
:103460000023237723681A6912F0080F12D0DA6854
:1034700012F0080F0ED06FF008021A6104232377B0
:103480002368DB6913F0030F4ED02046FFF7B6FF29
:103490000023237723681A6912F0100F12D0DA681C
:1034A00012F0100F0ED06FF010021A61082323776C
:1034B0002368DB6913F4407F3DD02046FFF79EFF71
:1034C0000023237723681A6912F0010F03D0DA680A
:1034D00012F0010F36D123681A6912F0800F03D061
:1034E000DA6812F0800F34D123681A6912F0400FA5
:1034F00003D0DA6812F0400F32D123681A6912F053
:10350000200F03D0DA6812F0200F30D110BDFFF782
:1035100074FF2046FFF773FF8AE72046FFF76DFF31
:103520002046FFF76CFF9BE72046FFF766FF20462B
:10353000FFF765FFACE72046FFF75FFF2046FFF788
:103540005EFFBDE76FF001021A612046FEF738F911
:10355000C1E76FF080021A61204600F0BFFBC3E7AD
:103560006FF040021A612046FFF74AFFC5E76FF08F
:1035700020021A61204600F0B0FBC7E70368304A1A
:10358000904212D0B0F1804F0FD0A2F57C42904211
:103590000BD002F58062904207D002F58062904223
:1035A00003D002F57842904203D123F070034A68B9
:1035B0001343234A90422AD0B0F1804F27D0A2F57E
:1035C0007C42904223D002F5806290421FD002F5E7
:1035D000806290421BD002F57842904217D002F5EB
:1035E0007052904213D002F5806290420FD002F5E3
:1035F000806290420BD0A2F59832904207D002F53B
:103600008062904203D002F58062904203D123F49D
:103610004073CA68134323F080034A69134303606D
:103620008B68C3620B688362054B984203D003F535
:103630008063984201D10B690363012343617047A2
:103640000000014040B310B5044690F83D30F3B19E
:10365000022384F83D30214651F8040BFFF78EFF1A
:10366000012384F8463084F83E3084F83F3084F8F3
:10367000403084F8413084F8423084F8433084F894
:10368000443084F8453084F83D30002010BD80F887
:103690003C30FEF729FCDBE70120704740B310B552
:1036A000044690F83D30F3B1022384F83D302146C2
:1036B00051F8040BFFF762FF012384F8463084F8C9
:1036C0003E3084F83F3084F8403084F8413084F84C
:1036D000423084F8433084F8443084F8453084F82C
:1036E0003D30002010BD80F83C30FFF785FEDBE761
:1036F00001207047002857D070B50D46044690F859
:103700003D30002B4BD0022384F83D302268936873
:1037100023F4804323F007039360214651F8040B00
:10372000FFF72CFF21688A688B690E6A28681043AE
:1037300023F4407C2CF0030CAA68AB6942EA032313
:1037400043EA0C0323F47C4323F0FC03EA69D5F835
:103750000CC04CEA022C4CEA030C2A6A13032A69B7
:1037600043EA021343EA0C0326F0AA066A686D696D
:1037700042EA05123243886021688B6123681A622D
:10378000012384F8463084F83E3084F83F3084F8D2
:10379000423084F8433084F83D30002070BD80F81A
:1037A0003C30FEF7DFFAAEE70120704730B4036A21
:1037B00023F010030362036A4468826922F4E6423C
:1037C0000D6842EA052223F020038D6843EA0513C1
:1037D000114DA84203D005F58065A84206D123F01B
:1037E0008003CD6843EA051323F040030A4DA84245
:1037F00003D005F58065A84207D124F440644D69E3
:1038000044EA85048D6944EA8504446082614A681B
:103810008263036230BC70470000014038B590F805
:103820003C30012B66D004460D46012380F83C3025
:103830000C2A5AD8DFE802F0075959591B5959592F
:103840003059595944000068FFF7D0FC2268936949
:1038500043F0080393612268936923F004039361A2
:103860002268936929690B43936100203EE0006858
:10387000FFF79CFF2268936943F400639361226819
:10388000936923F48063936122689369296943EA09
:1038900001239361002029E00068FFF7DBFC226828
:1038A000D36943F00803D3612268D36923F004038A
:1038B000D3612268D36929690B43D361002015E0E5
:1038C0000068FFF7FFFC2268D36943F40063D3610B
:1038D0002268D36923F48063D3612268D36929699C
:1038E00043EA0123D361002000E00120002384F893
:1038F0003C3038BD0220FCE710B4846824F47F4CCF
:1039000042EA03220A4342EA0C02826010BC70477A
:1039100090F83C30012B78D010B50446012380F894
:103920003C30022380F83D300268936823F47F43E3
:1039300023F0770393600B68602B4CD029D8402B81
:1039400054D00CD9502B22D1CA6849680068FFF7BF
:10395000E1FC50212068FFF702FD002005E0202B4C
:103960000DD009D9302B0AD00120012384F83D3035
:10397000002384F83C3010BD0BB1102B05D1194643
:103980002068FFF7ECFC0020EFE70120EDE70120C5
:10399000EBE7B3F5805F34D0B3F5005F0CD1CB68B3
:1039A0004A6889680068FFF7A7FF2268936843F4B4
:1039B000804393600020D8E7702B24D1CB684A68FD
:1039C00089680068FFF798FF2268936843F07703DF
:1039D00093600020C9E7CA6849680068FFF7ACFC3B
:1039E00060212068FFF7BBFC0020BEE7CA68496879
:1039F0000068FFF78FFC40212068FFF7B0FC002033
:103A0000B3E70020B1E70120AFE70220704701F0E3
:103A10001F01012303FA01FC036A23EA0C0303627A
:103A2000036A02FA01F10B430362704710B50446C2
:103A30000846002942D194F83E30DBB2013B18BF62
:103A40000123002B6ED1002851D1022384F83E308F
:103A5000012201462068FFF7DAFF2368334A9342C8
:103A600003D002F58062934203D15A6C42F40042C3
:103A70005A6423682D4A934249D0B3F1804F46D00F
:103A8000A2F57C42934242D002F5806293423ED03E
:103A900002F5806293423AD002F57842934236D0E2
:103AA00002F57052934232D0A2F5943293422ED056
:103AB0001A6842F001021A60002032E0042908D09E
:103AC00008290DD094F84130DBB2013B18BF012327
:103AD000B7E794F83F30DBB2013B18BF0123B0E7F2
:103AE00094F84030DBB2013B18BF0123A9E704285A
:103AF00005D0082807D0022384F84130A8E7022324
:103B000084F83F30A4E7022384F84030A0E79A68A5
:103B100002F00702062A07D01A6842F001021A6072
:103B2000002010BD0120FCE70020FAE70000014062
:103B300038B5044690F83E00C0B294F83F3094F88F
:103B40004220D2B294F843C00D46B1B9012849D100
:103B5000012A48D1022384F83E3084F842307DB3F4
:103B6000042D39D0012200212068FFF750FF0122E7
:103B700004212068FFF74BFF27E0DBB25FFA8CFCE3
:103B8000042912D0012833D1012B2CD1012A31D1A3
:103B9000BCF1010F30D1022384F83E3084F83F306D
:103BA00084F8423084F84330D9E7012B1CD1BCF1B2
:103BB000010F1BD1022384F83F3084F84330CEE755
:103BC000012200212068FFF722FF2268136843F0DA
:103BD00001031360002006E0012204212068FFF7A2
:103BE00016FFF2E7012038BD0120FCE71846FAE78E
:103BF0000120F8E71846F6E71046F4E790F83C3065
:103C0000012B3CD010B4012380F83C30022380F813
:103C10003D3003685A689C6822F0700C0A6842EADA
:103C20000C025A600368174A93421AD0B3F1804FCE
:103C300017D0A2F57C42934213D002F580629342E2
:103C40000FD002F5806293420BD002F57842934286
:103C500007D002F57052934203D0A2F594329342FA
:103C600004D124F080044A6814439C60012380F846
:103C70003D30002380F83C30184610BC70470220CD
:103C8000704700BF0000014090F83C30012B22D06B
:103C9000012380F83C30CB6823F440738A681343D7
:103CA00023F480634A68134323F400630A681343D0
:103CB00023F480530A69134323F400534A691343DE
:103CC00023F48043CA69134302685364002380F8D5
:103CD0003C301846704702207047704770470268B2
:103CE00002F10C0353E8003F23F490730C3242E8D6
:103CF00000310029F3D1026802F1140353E8003FB8
:103D000023F00103143242E800310029F3D1036BA0
:103D1000012B05D0202380F83E3000230363704739
:103D2000026802F10C0353E8003F23F010030C3249
:103D300042E800310029F3D1ECE790F83D30DBB2E6
:103D4000212B01D0022070478368B3F5805F17D024
:103D5000036A5A1C02621A7803685A60C38C9BB2C9
:103D6000013B9BB2C3844BB90268D36823F0800344
:103D7000D3600268D36843F04003D36000207047EB
:103D80000369002BE4D1036A1B880268C3F30803AC
:103D90005360036A02330362E0E7000038B504466B
:103DA0000268136923F44053C1680B4313618368AD
:103DB0000269134342691343C2691A430168CB681D
:103DC00023F4164323F00C031343CB6002685369BA
:103DD00023F4407381690B4353610368314A934272
:103DE00006D002F58062934202D0FFF77FF901E02E
:103DF000FFF78CF9E369B3F5004F29D000210318D0
:103E000049411B1841F10001C90041EA5371DB002F
:103E1000181863684FEA83024FEA937341F1000177
:103E2000FCF752FC204DA5FB00325109642303FB33
:103E300011031B013233A5FB03235B0903F0F002DE
:103E400002EB011203F00F03216813448B6038BDAD
:103E50000023021843EB0301121841F10001C900CD
:103E600041EA5271D200101841F1000162689218C3
:103E70005B41FCF729FC0C4DA5FB00325109642382
:103E800003FB1103DB003233A5FB03235B095A005C
:103E900002F4F87202EB011203F0070321681344E5
:103EA0008B60D4E7001001401F85EB512DE9F843EA
:103EB00005460F4616469946DDF820802C68246892
:103EC00037EA04030CBF4FF0010C4FF0000CB4456F
:103ED0002DD1B8F1FF3FF1D0B8F1000F05D0FEF7BA
:103EE00047FBA0EB09004045E8D92A6802F10C0322
:103EF00053E8003F23F4D0730C3242E8003100292C
:103F0000F3D12A6802F1140353E8003F23F00103C0
:103F1000143242E800310029F3D1202385F83D30E6
:103F200085F83E30002385F83C30032000E0002077
:103F3000BDE8F88358B310B5044690F83D300BB394
:103F4000242384F83D302268D36823F40053D360DF
:103F50002046FFF723FF2268136923F4904313617F
:103F60002268536923F02A0353612268D36843F41B
:103F70000053D36000202064202384F83D3084F86F
:103F80003E3010BD80F83C30FEF73CF9D8E7012008
:103F900070472DE9F04182B01E4690F83D30DBB20B
:103FA000202B54D104460D469046002953D0002AB8
:103FB00053D090F83C30012B51D0012380F83C3095
:103FC00000230364212380F83D30FEF7D1FA074631
:103FD000A4F82480A4F82680A368B3F5805F05D0F8
:103FE0004FF00008002384F83C3012E0236913B13D
:103FF0004FF00008F6E7A8460025F3E738F8023B43
:104000002268C3F308035360E28C92B2013A92B281
:10401000E284E38C9BB273B100963B460022802180
:104020002046FFF743FFE0B9002DE7D015F8012B3C
:1040300023685A60E8E700963B460022402120466C
:10404000FFF734FF78B9202384F83D3000E00220E8
:1040500002B0BDE8F0810120FAE70120F8E7022074
:10406000F6E70320F4E70320F2E7704708B501689C
:10407000CA6822F04002CA60202280F83D20FFF783
:10408000F4FF002008BD7047704708B5806B00231F
:10409000C385C384FFF7F8FF08BD704790F83E3032
:1040A000DBB2222B67D18368B3F5805F4DD0826A83
:1040B000B3F5805F04D0002B54D10369002B51D19C
:1040C00003685B681370836A01338362C38D9BB29C
:1040D000013B9BB2C385002B4FD100B583B0026872
:1040E000D36823F02003D3600268D36823F480737D
:1040F000D3600268536923F001035361202380F8E1
:104100003E30036B012B33D100230363026802F1BD
:104110000C0353E8003F23F010030C3242E8003157
:104120000029F3D103681A6812F0100F06D000229C
:1041300001921A6801925B680193019B818DFFF7E0
:10414000ACFF002003B05DF804FB0269002AAED189
:10415000826A03685B68C3F308031380836A0233CF
:104160008362B3E703685B6803F07F031370AAE719
:10417000FFF789FFE5E70220704700207047000045
:1041800030B583B0044602681368D068516913F0F3
:104190000F0505D113F0200F02D010F0200F19D118
:1041A0002DB111F0010119D110F4907F16D1216BBE
:1041B00001297DD013F0800F03D010F0800F40F064
:1041C000158113F0400F03D010F0400F40F0128122
:1041D00003B030BD2046FFF761FFF9E713F0010F90
:1041E00006D010F4807F03D0226C42F001022264DA
:1041F00013F0040F04D019B1226C42F002022264C1
:1042000013F0020F04D019B1226C42F004022264B0
:1042100013F0080F07D010F0200F00D119B1226C55
:1042200042F008022264226C002AD1D013F0200F41
:1042300002D010F0200F29D123685B6903F04003FE
:10424000226C12F0080F00D163B32046FFF747FD40
:1042500023685B6913F0400F20D0226802F1140339
:1042600053E8003F23F04003143242E800310029B4
:10427000F3D1A36B73B1614A1A65A06BFEF748FADC
:104280000028A5D0A06B036D9847A1E72046FFF753
:1042900005FFD1E72046FFF7F7FE99E72046FFF735
:1042A000F3FE95E72046FFF7EFFE002323648FE738
:1042B00013F0100F3FF47EAF10F0100F3FF47AAF01
:1042C000002301931368019353680193019B536981
:1042D00013F0400F50D0A26B13685B689BB2002BA9
:1042E0003FF476AFA18D99427FF672AFE385D36933
:1042F000B3F5807F37D0226802F10C0353E8003F0A
:1043000023F480730C3242E800310029F3D1226893
:1043100002F1140353E8003F23F00103143242E892
:1043200000310029F3D1226802F1140353E8003F61
:1043300023F04003143242E800310029F3D1202356
:1043400084F83E3000232363226802F10C0353E813
:10435000003F23F010030C3242E800310029F3D172
:10436000A06BFEF78BF9A18DE38D9BB2C91A89B2C0
:104370002046FFF792FE2BE7A18DE38D9BB2C91A71
:1043800089B2E38D9BB2002B3FF422AF00293FF4AA
:104390001FAF226802F10C0353E8003F23F490732F
:1043A0000C3242E800300028F3D1226802F11403F5
:1043B00053E8003F23F00103143242E800300028A4
:1043C000F3D1202384F83E3000232363226802F1D6
:1043D0000C0353E8003F23F010030C3242E8003096
:1043E0000028F3D12046FFF758FEF1E62046FFF7FC
:1043F000A4FCEDE62046FFF739FEE9E68B40000815
:10440000014B1868704700BF0C00002070B50D4EBE
:104410000D4D761BB61006D0002455F8043B013430
:104420009847A642F9D1094E094D761B05F070FF59
:10443000B61006D0002455F8043B01349847A64234
:10444000F9D170BD18A7000818A7000820A7000818
:1044500018A70008830730B548D0541E002A3FD063
:10446000CAB2034601E0013C3AD303F8012B9D0791
:10447000F9D1032C2DD9CDB245EA05250F2C45EAFB
:10448000054536D9A4F1100222F00F0C03F1200EDD
:10449000E6444FEA121C03F1100242E9045542E9D6
:1044A000025510327245F8D10CF1010214F00C0FD4
:1044B00003EB021204F00F0C13D0ACF1040323F051
:1044C00003030433134442F8045B9342FBD10CF022
:1044D00003042CB1CAB21C4403F8012B9C42FBD14B
:1044E00030BD64461346002CF4D1F9E70346144668
:1044F000BFE71A46A446E0E70CB410B51F4B0029ED
:104500001C689CB035DB4FF40273ADF81430029098
:1045100006901FAB18D001394FF6FF720491079136
:10452000ADF8162002A91E9A0193204600F028F843
:10453000421C01DA8B232360029B00221A701CB0FC
:10454000BDE8104002B070474FF6FF72049107912A
:10455000ADF8162002A91E9A0193204600F010F82B
:10456000431C01DA8B2323601CB0BDE8104002B06D
:1045700070478B2323604FF0FF30F5E70C000020DD
:104580002DE9F04FD5B00C460C9191460E930A9050
:1045900002F084FE036817931846FCF731FAA389EA
:1045A0001690190603D52369002B00F08B87002491
:1045B0002BAB4D46CDE92944CDE91944CDE91B4447
:1045C0001294289398461894002308940024CDE967
:1045D00014342B78002B00F0DD81AA4604E01AF891
:1045E000013F002B00F01681252BF8D1BAEB050610
:1045F00040F014819AF80030002B00F0CB810023AA
:104600004FF0FF329AF801608DF8833009930AF178
:10461000010A07921F462B244FF020090AF1010AD4
:10462000A6F120035A2B00F22D81DFE813F0BA0225
:104630002B012B01B5022B012B012B016A002B0151
:104640002B014F02E3022B015A02C9022B01C402C3
:104650005B005B005B005B005B005B005B005B0082
:104660005B002B012B012B012B012B012B012B01BB
:10467000BF012B011A028600BF01BF01BF012B0140
:104680002B012B012B01B0022B012B01C3002B01AD
:104690002B012B0124022B015F022B012B013C0774
:1046A0002B012B012B012B012B012B012B012B01AA
:1046B000BF012B011A028800BF01BF01BF01A30285
:1046C000880081002B0196022B018202C500700236
:1046D00081002B0124027E0039072B012B011907D1
:1046E0002B017E00A6F1300300221AF8016B02EBC9
:1046F000820203EB4202A6F13003092BF5D909929D
:104700008EE7DDF828B0584602F0C8FD43681B93D9
:104710001846FCF775F91C900646584602F0BEFD97
:1047200083681993002E40F07A869AF8006075E746
:104730009AF8006047F0200770E747F01007BA06C4
:104740000E9B40F18081073323F007031A465B6814
:1047500052F8084B0E929946002BC0F25F85079BDA
:10476000013301F01F8054EA090327F0800B00F0A9
:10477000E3840A2C79F1000380F08187303401232F
:104780008DF84F415F460B930DF24F1507990B982B
:104790009DF8832081424FF00003B8BF01460D937E
:1047A00006910F9313931093002A7CD0069B01333C
:1047B000069378E047F0100717F0200900F03481E5
:1047C0000E9B073323F00703D3F8049053F8084BEC
:1047D0000E9327F4806B002300228DF88320079A24
:1047E000511C00F00D8254EA09012BF0800740F0C3
:1047F0000682002A41F01080002B40F0A2841BF0BA
:1048000001030B9300F0378530238DF84F310DF203
:104810004F15BBE7BAEB050600F0BC802A9B33447A
:104820002A93299B0133072BC8E90056299305DCFD
:1048300008F10808089B33440893DBE60C990A98B2
:1048400028AA03F019FC80B90DF1AC08F2E70C9925
:104850000A9828AA03F010FC002800F08C800D9B19
:104860001BB10D990A9802F013FC0C9B9B8913F065
:10487000400F089B18BF4FF0FF330893089855B0BE
:10488000BDE8F08F002E00F0858000228DF8EC60EE
:104890008DF88320012306930D920B9307920F92BC
:1048A000139210923BAD17F0020302D00699023129
:1048B000069117F0840B07D109990698A1EB00091E
:1048C000B9F1000F00F315832A9C8AB1299A0DF1E2
:1048D000830101320134C8F80010072A4FF00101AA
:1048E0002A942992C8F8041000F3468308F10808B6
:1048F00083B1299B21AA01330234C8F80020072B79
:104900004FF002022A942993C8F8042000F3488348
:1049100008F10808BBF1800F00F00E82079B0B9A8C
:10492000A3EB020BBBF1000F00F34F82FB0500F17C
:10493000A5810B9BC8F804301C44299BC8F8005083
:104940000133072B2A94299300F3C78208F1080842
:104950007B0705D5099B069A9D1A002D00F32C8331
:10496000DDE9083206998A42ACBF9B185B180893B0
:10497000002C7FF46CAF002329930D9B1BB10D9984
:104980000A9802F085FB0DF1AC0855462B78002BF8
:104990007FF423AE2A9B002B3FF467AF0C9C0A9850
:1049A00028AA214603F068FBA38960E70E9B073322
:1049B00023F00702F2E80234CDE91434DDE91434BF
:1049C00024F000440E92994618462146A74B4FF01A
:1049D000FF32FCF781FB002840F06284A34B48467D
:1049E00021464FF0FF32FBF731FE002840F058849B
:1049F000DDE9140100220023FBF71EFE002840F031
:104A0000AD879DF883209A4D9A4B27F080070321AC
:104A1000472EC8BF1D4600230D9306910B910793A7
:104A20000F9313931093BFE617F0100340F02E84FA
:104A300017F0400200F054870E9A52F8044B0E9281
:104A40009946A4B2C5E653F8044B0E93FB0600F159
:104A500018847D0640F1128444F3C0394B4624B2D9
:104A60007AE60E9B002253F8041B8DF883208DF804
:104A7000EC100E930EE70E9C079B54F8045B4FF06E
:104A800000098DF88390002D00F0D5865A1C00F0A7
:104A900052851A4649462846FCF722F80D90002810
:104AA00001F057800D9BCDF81C905B1B0B930E946F
:104AB00023EAE3739DF883200693CDF83490CDF874
:104AC0003C90CDF84C90CDF840906DE60E9B53F89D
:104AD000042B0992002A80F2C983099A0E9352424C
:104AE00009929AF8006047F0040797E547F0100B29
:104AF0001BF0200900F081830E9B073323F007038E
:104B0000D3F8049053F8084B0E93012364E60E9BF0
:104B100053F8044B0E93302378268DF88430564B8F
:104B2000189347F0020B8DF885604FF000090223BF
:104B300052E6BD0600F18284FC0600F17386780619
:104B400000F13C87B90540F16D860E9B089953F83A
:104B5000042B0E931170554618E79AF800606C2EDE
:104B600003BF9AF8016047F020070AF1010A47F0F5
:104B7000100753E59AF80060682E03BF9AF80160A9
:104B800047F400770AF1010A47F0400746E59AF832
:104B9000006047F0080741E59AF8006047F0010718
:104BA0003CE59DF88330002B7FF4BFAD9AF80060A0
:104BB0008DF8839032E59AF8006047F080072DE584
:104BC000524612F8016B2A2E01F0CD81A6F1300376
:104BD000092B924698BF002201F288801AF8016BD7
:104BE00002EB820203EB4202A6F13003092BF5D956
:104BF000079215E59AF800608DF883400EE5BB46F4
:104C0000012B3FF4B6AD022B54AD12D1189A04F02B
:104C10000F032409D35C05F8013D44EA09744FEA07
:104C2000191954EA0903F2D154AB5B1B5F460B938D
:104C3000ACE504F00703E40844EA49744FEAD909F3
:104C4000303354EA09012A4605F8013DF1D11BF041
:104C5000010FE9D0302BE7D03023023A05F8013CB0
:104C600054AB9B1A5F460B9315468FE5FFFFEF7F12
:104C70005CA3000860A300086CA30008652E40F345
:104C8000E680DDE9140100220023FBF7CBFC0028BD
:104C900000F0CD81299BBF4AC8F8002001330134C0
:104CA0000122072B2A942993C8F8042000F37D855C
:104CB00008F10808229B129A934280F2D382169B35
:104CC000179A1C44C8E90023299B2A940133072B17
:104CD000299300F3EB8308F10808129B5D1E002D59
:104CE0007FF736AE102D299BDFF8AC9240F36E852E
:104CF00049462246B946DDF828B00C9C10260F46DE
:104D000005E008F10808103D102D40F35B850133E4
:104D10001032072BC8E90076CDE92932F1DD28AA47
:104D20002146584603F0A8F900287FF498ADDDE944
:104D300029320DF1AC08E6E7099B069AA3EB020BBA
:104D4000BBF1000F7FF7EAADBBF1100F299ADFF836
:104D500048922CDD1D9621464E460C9CDDF828908D
:104D6000102306E0ABF1100BBBF1100F08F108089F
:104D70001ADD01321031072AC8E90063CDE9292183
:104D8000F0DD28AA214648460DF1AC0803F074F97D
:104D900000287FF464ADABF1100BBBF1100FDDE91F
:104DA00029214FF01003E4DCB1461D9E0C46013270
:104DB0005C44072ACDE92924C8F80090C8F804B05B
:104DC00000F31D8508F10808A8E5BBF1100F299A2A
:104DD000DFF8C4912DDD41462046A8464C460C9D87
:104DE000DDF82890102306E0ABF1100BBBF1100F9B
:104DF00001F1080119DD01321030072AC1E9004331
:104E0000CDE92920F0DD28AA2946484603F034F9E7
:104E100000287FF424ADABF1100BBBF1100FDDE9DE
:104E200029202BA94FF01003E5DC4546A146884612
:104E3000044601325C44072ACDE92924C8F80090D1
:104E4000C8F804B000F3CC8108F108086EE5129BA5
:104E5000012B40F37C81299EC8F8005001360134B3
:104E60000123072E2A942996C8F8043000F3E08124
:104E700008F10808169B179A01361C44072EC8E94A
:104E80000023CDE9296400F3E08108F10808DDE999
:104E9000140100220023FBF7C5FB002840F07481B9
:104EA000129B0136013B01351C44072EC8F8005007
:104EB0002996C8F804302A9400F3598108F10808AB
:104EC0001A9BC8F8043001361C44072E24ABCDE9E8
:104ED0002964C8F800307FF739AD0C990A9828AAE0
:104EE00003F0CAF800287FF4BAAC2A9C0DF1AC0894
:104EF0002EE5B9F1100FDDE929212BDDCDE91D3BB0
:104F00001F96DDF828B04E461024A9460C9D04E0FB
:104F1000103E102E08F1080817DD01321F4B10312A
:104F2000072AC8E90034CDE92921F1DD28AA29465C
:104F300058460DF1AC0803F09FF800287FF48FACC1
:104F4000103E102EDDE92921E7DCDDE91D3B4D4651
:104F5000B1461F9EC8F80490013209EB0104072AEC
:104F60000E49C8F80010CDE9292400F3FF839DF80D
:104F7000832008F10808A8E40C990A981D9328AA30
:104F800003F07AF800287FF46AAC2A9C1D9B0DF18F
:104F9000AC08ADE49CA30008B0A30008A0A30008DF
:104FA0000C990A9828AA03F067F800287FF457ACF8
:104FB0002A9C0DF1AC08ADE4102D299B21DD0A9F40
:104FC000DDF83090102604E0103D102D08F108089F
:104FD00017DD0133B04A1034072BC8E90026CDE9AC
:104FE0002934F1DD28AA494638460DF1AC0803F012
:104FF00043F800287FF433AC103D102DDDE929344F
:10500000E7DC0133A44AC8F804502C44072BCDE94F
:105010002934C8F800207FF7A3AC0C990A9828AA75
:1050200003F02AF800287FF41AAC2A9C98E422990D
:10503000002940F36683DDF84090129B9945A8BF94
:105040009946B9F1000F0BDD299B01334C44072B26
:10505000C8E900592A94299300F32F8508F108081C
:10506000109EB9F1000FA8BFA6EB0906002E00F3B1
:105070003882DDF840B07805AB4400F16682229BAF
:10508000129A934202DBF90740F18E84169A17991F
:105090001444C8E90012299A2A940132072A299255
:1050A00000F3188508F10808129AAE18A6EB0B0653
:1050B000D51AAE42A8BF2E46002E0DDD299BC8F89A
:1050C00000B001333444072BC8F804602A942993B4
:1050D00000F31A8608F10808002EA8BFAD1B002DAA
:1050E0007FF736AC102D299BDFF8B09140F36E832B
:1050F00049462246B946DDF828B00C9C10260F46DA
:1051000005E008F10808103D102D40F35B830133E2
:105110001032072BC8E90076CDE92932F1DD28AA43
:105120002146584602F0A8FF00287FF498ABDDE93D
:1051300029320DF1AC08E6E7079B002B7FF41EAB8C
:105140005F46002307930B9354ADFFF71FBBFA078D
:105150003FF581AE299EC8F8005001360134012385
:10516000072E2A942996C8F804307FF7A7AE0C9929
:105170000A9828AA02F080FF00287FF470ABDDE9CE
:1051800029640DF1AC089BE6129B5D1E002D7FF794
:1051900097AE102DDFF8049140F3968322460797CF
:1051A0000A9C0C9F4FF0100B05E008F10808103D19
:1051B000102D40F3878301361032072EC8E9009B7B
:1051C000CDE92962F1DD28AA3946204602F054FFD4
:1051D00000287FF444ABDDE929620DF1AC08E6E775
:1051E0000C990A9828AA02F047FF00287FF437ABF1
:1051F0002A9C0DF1AC08FFF799BB1BF0100340F09F
:1052000028811BF0400200F079830E9A52F8044B7B
:105210000E929946A4B20123FFF7DEBA2D23644211
:105220008DF8833069EB4909BB460123FFF7D7BAF4
:105230000C990A9828AA02F01FFF00287FF40FABF0
:10524000DDE929640DF1AC0814E60C990A9828AA46
:1052500002F012FF00287FF402ABDDE929640DF1B2
:10526000AC0814E6FD077FF573AB28E59AF80060FB
:105270000E93FFF7D3B954ADFFF788BAB80500F124
:10528000A6834FEAE4794B46FFF766BA0E9B53F8C4
:10529000044B0E93FFF79DBAA0A30008B0A300082B
:1052A000DDE9140102460B46FBF716FF002840F02B
:1052B0000F86612E00F04585412E00F06D84079B1E
:1052C000013326F02003069300F0A983472B00F05A
:1052D0008885DDE9141247F480730F931346002B81
:1052E000C0F292850B9300231D938B460D93069B72
:1052F000462B00F0FD83452B00F044850799019172
:1053000026A9049123A9039122A9029102210B9BB2
:105310000A9800915A4600F0F3FE069B472B05467B
:1053200040F0318617F0010FB9460F9F40F0FC8422
:10533000269B5B1B1293069B472B00F08283069BE8
:10534000462B00F01284229B1093109B069A013B7F
:10535000412A229300F0AD85F2B20021002BB8BFA4
:10536000109B8DF89020BABFC3F101032D222B2290
:10537000092B8DF8912040F38D850DF19F04B64FD8
:105380002246104687FB0321DA17C2EBA10202EB8B
:105390008201A3EB4101303100F8011C1946632959
:1053A000134600F1FF32ECDC3033D9B2831E9C424D
:1053B00002F8011C40F2F18513460DF1920201E062
:1053C00013F8011B02F8011B9C42F9D10DF1A10356
:1053D0000DF192021B1A134424AA9B1A1A93129BD2
:1053E0001A9A012B1A440B9240F39E850B9B169A36
:1053F00013440B930B9A002329F4806722EAE2728C
:1054000047F480770F930692139310931D9B002B04
:1054100040F03F839DF883200793FFF7C5B9199BA0
:10542000002B3FF482A9199B1B78002B3FF47DA928
:105430009AF8006047F48067FFF7F0B80E9B089871
:1054400053F8041B0E93C217C1E900025546FFF73B
:105450009DBA0E9B53F8044B0E930123FFF7BCB982
:105460007E4B189317F0200900F0EC800E9B073359
:1054700023F00703D3F8049053F8084B0E93F80772
:1054800009D554EA090306D030238DF8856047F02A
:1054900002078DF8843027F4806B0223FFF79CB954
:1054A000BB46FFF725BB6E4B1893DBE70C990A98B8
:1054B00028AA02F0E1FD00287FF4D1A92A9C0DF171
:1054C000AC080AE40A98402101F0F4FE0C9B186035
:1054D0001861002800F065850C9A40235361FFF79E
:1054E00066B8102E299BDFF87C9140F3298248464C
:1054F00042462146A846B9460A9C0C9D4FF0100B27
:10550000074604E00832103E102E40F313820133A8
:105510001031072BC2E9007BCDE92931F2DD28AA41
:105520002946204602F0A8FD00287FF498A9DDE96D
:1055300029312BAAE7E72846CDF81C900E94FBF7FB
:105540005FFA03460B90FFF7B3BA129BCDF82CA07D
:105550004246DDF84C801097EB1807935E46199F82
:10556000DDF87090DDF828A0DDF830B00F9B1395C2
:105570002146B8F1000F2FD0002B30D1013F08F1A8
:10558000FF381B9BC2E90039299B01334944072B93
:105590002A91299368DC0832079B38789B1B834249
:1055A000A8BF0346002B1C460BDD29980130194487
:1055B0000728C2E900632A91299000F31481387802
:1055C0000832002CACBF051B0546002D0BDC064441
:1055D0000F9BB8F1000FCFD1002B00F023820F9B5F
:1055E000013B0F93CDE7102D29981DDD102404E019
:1055F000103D102D02F1080216DD0130194B10315B
:105600000728C2E90034CDE92901F1DD28AA59466D
:10561000504602F031FD00287FF421A9103D102DE5
:10562000DDE929012BAAE8DC01300E4B5560294445
:105630000728CDE92901136000F332823878083257
:105640000644C5E717F0100300F0A1800E9B53F845
:10565000044B0E9313E700BF676666666CA30008F1
:1056600080A30008B0A3000828AA5946504602F0BB
:1056700003FD00287FF4F3A82A992BAA8CE70BF4EA
:10568000806300220696CDF82CA0CDF8348054AF6C
:10569000DDF864809A4616460CE000232046494611
:1056A0000A22FBF711F80A2C79F100031BD30446F8
:1056B00089462F4620460A2200234946FBF704F874
:1056C00030327D1E013607F8012CBAF1000FE4D00C
:1056D00098F800309E42E0D1FF2EDED00A2C79F1FE
:1056E000000380F0408154AB5B1BDDF82CA0CDF8AB
:1056F00064801296DDF83480069E0B935F46FFF7B8
:1057000045B8299BBC4AC8F8002001330134012266
:10571000072B2A942993C8F8042000F3388108F154
:105720000808002940F09780129A07F001031343FC
:105730003FF40EA9169B17991A19C8E90013299B63
:105740002A920133072B299300F3478108F10808B7
:105750001299C8F8005001338C18072BCDE9293471
:10576000C8F804107FF7F2A8FFF7B7BB0C990A98A6
:105770001D9328AA02F080FC00287FF470A89DF8F1
:1057800083202A9C1D9B0DF1AC08FFF79EB817F0F3
:10579000400200F0C2800E9A52F8044B0E929946D5
:1057A000A4B26CE6BB46FEF7E4BF0C990A9828AA9F
:1057B00002F062FC00287FF452A82A9C0DF1AC088C
:1057C000FFF778BA14463A464F46914601332C44C7
:1057D000072BC8F80090C8F80450CDE929347FF7AA
:1057E000B5A8FFF77ABB28AA5946504602F044FCF8
:1057F00000287FF434A838782A992BAAE1E60C997E
:105800000A9828AA02F038FC00287FF428A82A9CCD
:105810000DF1AC08FFF782B8012BBB467FF4F3A96A
:10582000FEF7ACBF0E9B089953F8042B5546116048
:105830000E93FFF7ABB8062B294628BF0623079522
:105840000D952A4606936D4D0E940B930F9113916F
:105850001091FEF7A9BF169B17981A19C8E9000303
:10586000299B2A920133072B299300F3B68008F174
:1058700008080029BFF66CAF4E421031DFF8809166
:1058800080F297824146DDF828B0A84610240C9D8E
:1058900004E00831103E102E40F3898201331032AB
:1058A000072BC1E90094CDE92932F2DD28AA294667
:1058B000584602F0E1FB00287EF4D1AFDDE9293241
:1058C0002BA9E7E7079F144601362C44072ECDE9A4
:1058D0002964C8F80090C8F804507FF7EFAA46E49E
:1058E0000E9B17F4007914BF53F8044B53F8044B84
:1058F0000E931CBF9146E4B2FEF76BBF0E9B1BF4E8
:10590000007914BF53F8044B53F8044B0E931CBF9B
:105910009146E4B20123FEF75FBF0E9B17F40079B6
:1059200014BF53F8044B53F8044B0E931CBF91461D
:10593000E4B2A4E5454690463A460C464F469146A9
:1059400001333444072BCDE92934C8F80090C8F856
:10595000046057DC08F10808FFF78BBB2D228DF897
:105960008320FFF750B81C9B1B99ED1A1A46284656
:1059700002F050FB98F801300BB108F10108204605
:1059800049460A2200230026FAF79EFE8FE60C996C
:105990000A9828AA02F070FB00287EF460AF2299D2
:1059A0002A9C0DF1AC08BCE6129AAE18A6EB0B06C9
:1059B000D51AAE42A8BF2E46FFF78EBB0E9B0899A4
:1059C00053F8042B0E9311805546FEF7DFBF44F3C6
:1059D000C0194B4664B2FEF7BFBE0C990A9828AABC
:1059E00002F04AFB00287EF43AAFDDE92932229921
:1059F0000DF1AC083DE700BF9CA3000894A300088C
:105A0000B0A300080C990A9828AA02F035FB0028D8
:105A10007EF425AF2A9C0DF1AC08FFF72ABB0623C4
:105A2000079356E4DDE91235EB189E421997B34609
:105A3000DDF82CA0109F90460C4628BF9B46FFF730
:105A40001EBB229B1093DA1C02DB079A934204DDF3
:105A5000023E26F02003069377E4109B129A9342AD
:105A6000C0F2488119F0010F00F01182169A134418
:105A70000B9319F4806F03D0109B002B00F3C781A8
:105A80000B9B23EAE3730693672600230F9313937C
:105A9000BCE42D2200238DF883200793FEF786BEF9
:105AA00028AA5946504602F0E7FA00287EF4D7AEFD
:105AB00038782A992BAA06448AE50C990A9828AACC
:105AC00002F0DAFA00287EF4CAAE2A9C0DF1AC0886
:105AD000FFF7C6BA0C990A9828AA02F0CDFA002856
:105AE0007EF4BDAE229B2A9C0DF1AC08FFF7DCBA18
:105AF0000799019126A9049123A9039122A9029152
:105B000003210B9B0A9800915A4600F0F9FA03789A
